{
  "contractName": "Logic",
  "abi": [
    {
      "constant": true,
      "inputs": [],
      "name": "_proxyStorageAddress",
      "outputs": [
        {
          "name": "",
          "type": "address"
        }
      ],
      "payable": false,
      "stateMutability": "view",
      "type": "function"
    },
    {
      "constant": false,
      "inputs": [
        {
          "name": "tokenAddress",
          "type": "address"
        },
        {
          "name": "recipient",
          "type": "address"
        },
        {
          "name": "amount",
          "type": "uint256"
        }
      ],
      "name": "feeFreeSend",
      "outputs": [],
      "payable": false,
      "stateMutability": "nonpayable",
      "type": "function"
    },
    {
      "constant": false,
      "inputs": [
        {
          "name": "tokenAddress",
          "type": "address"
        },
        {
          "name": "recipient",
          "type": "address"
        },
        {
          "name": "amount",
          "type": "uint256"
        }
      ],
      "name": "feeSend",
      "outputs": [],
      "payable": true,
      "stateMutability": "payable",
      "type": "function"
    },
    {
      "constant": false,
      "inputs": [
        {
          "name": "tokenAddress",
          "type": "address"
        },
        {
          "name": "recipient",
          "type": "address"
        },
        {
          "name": "tokenAmount",
          "type": "uint256"
        },
        {
          "name": "gods",
          "type": "address[]"
        },
        {
          "name": "feeAmount",
          "type": "uint256[]"
        }
      ],
      "name": "erc20TokenSend",
      "outputs": [],
      "payable": true,
      "stateMutability": "payable",
      "type": "function"
    }
  ],
  "bytecode": "0x608060405234801561001057600080fd5b50610c69806100206000396000f300608060405260043610610062576000357c0100000000000000000000000000000000000000000000000000000000900463ffffffff1680633f00c8a3146100675780636ebaf9cf1461014d5780639ed99fc9146101ad578063ce295eaf14610204575b600080fd5b61014b600480360381019080803573ffffffffffffffffffffffffffffffffffffffff169060200190929190803573ffffffffffffffffffffffffffffffffffffffff169060200190929190803590602001909291908035906020019082018035906020019080806020026020016040519081016040528093929190818152602001838360200280828437820191505050505050919291929080359060200190820180359060200190808060200260200160405190810160405280939291908181526020018383602002808284378201915050505050509192919290505050610271565b005b6101ab600480360381019080803573ffffffffffffffffffffffffffffffffffffffff169060200190929190803573ffffffffffffffffffffffffffffffffffffffff169060200190929190803590602001909291905050506106c9565b005b3480156101b957600080fd5b506101c2610b00565b604051808273ffffffffffffffffffffffffffffffffffffffff1673ffffffffffffffffffffffffffffffffffffffff16815260200191505060405180910390f35b34801561021057600080fd5b5061026f600480360381019080803573ffffffffffffffffffffffffffffffffffffffff169060200190929190803573ffffffffffffffffffffffffffffffffffffffff16906020019092919080359060200190929190505050610b25565b005b600080600073ffffffffffffffffffffffffffffffffffffffff168773ffffffffffffffffffffffffffffffffffffffff1614151515610319576040517f08c379a00000000000000000000000000000000000000000000000000000000081526004018080602001828103825260138152602001807f77726f6e6720746f6b656e20616464726573730000000000000000000000000081525060200191505060405180910390fd5b600073ffffffffffffffffffffffffffffffffffffffff168673ffffffffffffffffffffffffffffffffffffffff16141515156103be576040517f08c379a00000000000000000000000000000000000000000000000000000000081526004018080602001828103825260138152602001807f77726f6e6720746f6b656e20616464726573730000000000000000000000000081525060200191505060405180910390fd5b82518451141515610437576040517f08c379a00000000000000000000000000000000000000000000000000000000081526004018080602001828103825260108152602001807f77726f6e6720676f64732720696e666f0000000000000000000000000000000081525060200191505060405180910390fd5b8673ffffffffffffffffffffffffffffffffffffffff166370a08231336040518263ffffffff167c0100000000000000000000000000000000000000000000000000000000028152600401808273ffffffffffffffffffffffffffffffffffffffff1673ffffffffffffffffffffffffffffffffffffffff168152602001915050602060405180830381600087803b1580156104d257600080fd5b505af11580156104e6573d6000803e3d6000fd5b505050506040513d60208110156104fc57600080fd5b810190808051906020019092919050505091508185111561051c576106c0565b8673ffffffffffffffffffffffffffffffffffffffff166323b872dd3388886040518463ffffffff167c0100000000000000000000000000000000000000000000000000000000028152600401808473ffffffffffffffffffffffffffffffffffffffff1673ffffffffffffffffffffffffffffffffffffffff1681526020018373ffffffffffffffffffffffffffffffffffffffff1673ffffffffffffffffffffffffffffffffffffffff1681526020018281526020019350505050602060405180830381600087803b1580156105f357600080fd5b505af1158015610607573d6000803e3d6000fd5b505050506040513d602081101561061d57600080fd5b810190808051906020019092919050505050600090505b83518110156106bf57838181518110151561064b57fe5b9060200190602002015173ffffffffffffffffffffffffffffffffffffffff166108fc848381518110151561067c57fe5b906020019060200201519081150290604051600060405180830381858888f193505050501580156106b1573d6000803e3d6000fd5b508080600101915050610634565b5b50505050505050565b60606000806000809054906101000a900473ffffffffffffffffffffffffffffffffffffffff1673ffffffffffffffffffffffffffffffffffffffff16632671c1fd6040518163ffffffff167c0100000000000000000000000000000000000000000000000000000000028152600401600060405180830381600087803b15801561075357600080fd5b505af1158015610767573d6000803e3d6000fd5b505050506040513d6000823e3d601f19601f82011682018060405250602081101561079157600080fd5b8101908080516401000000008111156107a957600080fd5b828101905060208101848111156107bf57600080fd5b81518560208202830111640100000000821117156107dc57600080fd5b505092919050505092508573ffffffffffffffffffffffffffffffffffffffff166323b872dd3387876040518463ffffffff167c0100000000000000000000000000000000000000000000000000000000028152600401808473ffffffffffffffffffffffffffffffffffffffff1673ffffffffffffffffffffffffffffffffffffffff1681526020018373ffffffffffffffffffffffffffffffffffffffff1673ffffffffffffffffffffffffffffffffffffffff1681526020018281526020019350505050602060405180830381600087803b1580156108bd57600080fd5b505af11580156108d1573d6000803e3d6000fd5b505050506040513d60208110156108e757600080fd5b8101908080519060200190929190505050506000809054906101000a900473ffffffffffffffffffffffffffffffffffffffff1673ffffffffffffffffffffffffffffffffffffffff1663d5f8f30e6040518163ffffffff167c0100000000000000000000000000000000000000000000000000000000028152600401602060405180830381600087803b15801561097e57600080fd5b505af1158015610992573d6000803e3d6000fd5b505050506040513d60208110156109a857600080fd5b81019080805190602001909291905050509150600090505b818160ff161015610af857828160ff168151811015156109dc57fe5b9060200190602002015173ffffffffffffffffffffffffffffffffffffffff166108fc6000809054906101000a900473ffffffffffffffffffffffffffffffffffffffff1673ffffffffffffffffffffffffffffffffffffffff1663209652556040518163ffffffff167c0100000000000000000000000000000000000000000000000000000000028152600401602060405180830381600087803b158015610a8457600080fd5b505af1158015610a98573d6000803e3d6000fd5b505050506040513d6020811015610aae57600080fd5b81019080805190602001909291905050509081150290604051600060405180830381858888f19350505050158015610aea573d6000803e3d6000fd5b5080806001019150506109c0565b505050505050565b6000809054906101000a900473ffffffffffffffffffffffffffffffffffffffff1681565b8273ffffffffffffffffffffffffffffffffffffffff166323b872dd3384846040518463ffffffff167c0100000000000000000000000000000000000000000000000000000000028152600401808473ffffffffffffffffffffffffffffffffffffffff1673ffffffffffffffffffffffffffffffffffffffff1681526020018373ffffffffffffffffffffffffffffffffffffffff1673ffffffffffffffffffffffffffffffffffffffff1681526020018281526020019350505050602060405180830381600087803b158015610bfc57600080fd5b505af1158015610c10573d6000803e3d6000fd5b505050506040513d6020811015610c2657600080fd5b8101908080519060200190929190505050505050505600a165627a7a72305820c2e743c78ec0010c75b4b45be26dbe0bd6ded8f9b77e582e44d73d56dedee76c0029",
  "source": "pragma solidity ^0.4.24;\n\nimport \"./HotDogToken.sol\";\nimport \"./ProxyStorage.sol\";\n\ncontract Logic {\n    address public _proxyStorageAddress;\n\n    function feeFreeSend(address tokenAddress, address recipient, uint256 amount) public {\n        ERC20(tokenAddress).transferFrom(msg.sender, recipient, amount);\n    }\n\n    function feeSend(address tokenAddress, address recipient, uint256 amount) public payable {\n        address[] memory _god = ProxyStorage(_proxyStorageAddress).getGods();\n        ERC20(tokenAddress).transferFrom(msg.sender, recipient, amount);\n        uint256 length = ProxyStorage(_proxyStorageAddress).getNumGod();\n        for(uint8 i=0; i<length; i++) {\n            _god[i].transfer(ProxyStorage(_proxyStorageAddress).getValue());\n        }\n    }\n\n    function erc20TokenSend(address tokenAddress, address recipient, uint256 tokenAmount, address[] gods, uint256[] feeAmount) public payable {\n        require(tokenAddress != address(0), \"wrong token address\");\n        require(recipient != address(0), \"wrong token address\");\n        require(gods.length == feeAmount.length, \"wrong gods' info\");\n        uint256 balance = ERC20(tokenAddress).balanceOf(msg.sender);\n        if(tokenAmount > balance) {\n            return;\n        }\n        ERC20(tokenAddress).transferFrom(msg.sender, recipient, tokenAmount);\n        for(uint256 i=0; i<gods.length; i++) {\n            gods[i].transfer(feeAmount[i]);\n        }\n    }\n}",
  "sourcePath": "/Users/jang-yonghyeon/workspace/blockchain/ethereum/test/contracts/Logic.sol",
  "compiler": {
    "name": "solc",
    "version": "0.4.25+commit.59dbf8f1.Emscripten.clang"
  },
  "schemaVersion": "2.0.2",
  "updatedAt": "2019-07-30T01:28:49.749Z"
}